{
  "contractName": "EHR",
  "abi": [
    {
      "inputs": [],
      "payable": true,
      "stateMutability": "payable",
      "type": "constructor"
    },
    {
      "anonymous": false,
      "inputs": [
        {
          "indexed": false,
          "internalType": "string",
          "name": "_patient_name",
          "type": "string"
        },
        {
          "indexed": false,
          "internalType": "string",
          "name": "_patient_email",
          "type": "string"
        },
        {
          "indexed": false,
          "internalType": "string",
          "name": "_facilitator_name",
          "type": "string"
        },
        {
          "indexed": false,
          "internalType": "string",
          "name": "_facilitator_role",
          "type": "string"
        },
        {
          "indexed": false,
          "internalType": "string",
          "name": "_record_name",
          "type": "string"
        },
        {
          "indexed": false,
          "internalType": "string",
          "name": "_added_date",
          "type": "string"
        },
        {
          "indexed": false,
          "internalType": "string",
          "name": "_content_hash",
          "type": "string"
        }
      ],
      "name": "recordCreated",
      "type": "event"
    },
    {
      "constant": true,
      "inputs": [],
      "name": "Id",
      "outputs": [
        {
          "internalType": "uint256",
          "name": "",
          "type": "uint256"
        }
      ],
      "payable": false,
      "stateMutability": "view",
      "type": "function"
    },
    {
      "constant": true,
      "inputs": [
        {
          "internalType": "uint256",
          "name": "",
          "type": "uint256"
        }
      ],
      "name": "recordIds",
      "outputs": [
        {
          "internalType": "uint256",
          "name": "",
          "type": "uint256"
        }
      ],
      "payable": false,
      "stateMutability": "view",
      "type": "function"
    },
    {
      "constant": false,
      "inputs": [
        {
          "internalType": "string",
          "name": "_patient_name",
          "type": "string"
        },
        {
          "internalType": "string",
          "name": "_patient_email",
          "type": "string"
        },
        {
          "internalType": "string",
          "name": "_facilitator_name",
          "type": "string"
        },
        {
          "internalType": "string",
          "name": "_facilitator_role",
          "type": "string"
        },
        {
          "internalType": "string",
          "name": "_record_name",
          "type": "string"
        },
        {
          "internalType": "string",
          "name": "_added_date",
          "type": "string"
        },
        {
          "internalType": "string",
          "name": "_content_hash",
          "type": "string"
        }
      ],
      "name": "add_record",
      "outputs": [],
      "payable": false,
      "stateMutability": "nonpayable",
      "type": "function"
    },
    {
      "constant": true,
      "inputs": [],
      "name": "getRecordIds",
      "outputs": [
        {
          "internalType": "uint256[]",
          "name": "",
          "type": "uint256[]"
        }
      ],
      "payable": false,
      "stateMutability": "view",
      "type": "function"
    },
    {
      "constant": true,
      "inputs": [
        {
          "internalType": "uint256",
          "name": "_record_id",
          "type": "uint256"
        }
      ],
      "name": "get_record",
      "outputs": [
        {
          "internalType": "uint256",
          "name": "",
          "type": "uint256"
        },
        {
          "internalType": "string",
          "name": "",
          "type": "string"
        },
        {
          "internalType": "string",
          "name": "",
          "type": "string"
        },
        {
          "internalType": "string",
          "name": "",
          "type": "string"
        },
        {
          "internalType": "string",
          "name": "",
          "type": "string"
        },
        {
          "internalType": "string",
          "name": "",
          "type": "string"
        },
        {
          "internalType": "string",
          "name": "",
          "type": "string"
        },
        {
          "internalType": "string",
          "name": "",
          "type": "string"
        }
      ],
      "payable": false,
      "stateMutability": "view",
      "type": "function"
    }
  ],
  "bytecode": "0x6080604052600080556112fe806100176000396000f3fe608060405234801561001057600080fd5b50600436106100575760003560e01c806310ea91421461005c57806339a090c91461035f578063697cd3571461037957806397ddbef9146103d1578063b2ffa758146103ee575b600080fd5b6100796004803603602081101561007257600080fd5b50356107b2565b604051808981526020018060200180602001806020018060200180602001806020018060200188810388528f818151815260200191508051906020019080838360005b838110156100d45781810151838201526020016100bc565b50505050905090810190601f1680156101015780820380516001836020036101000a031916815260200191505b5088810387528e818151815260200191508051906020019080838360005b8381101561013757818101518382015260200161011f565b50505050905090810190601f1680156101645780820380516001836020036101000a031916815260200191505b5088810386528d5181528d516020918201918f019080838360005b8381101561019757818101518382015260200161017f565b50505050905090810190601f1680156101c45780820380516001836020036101000a031916815260200191505b5088810385528c5181528c516020918201918e019080838360005b838110156101f75781810151838201526020016101df565b50505050905090810190601f1680156102245780820380516001836020036101000a031916815260200191505b5088810384528b5181528b516020918201918d019080838360005b8381101561025757818101518382015260200161023f565b50505050905090810190601f1680156102845780820380516001836020036101000a031916815260200191505b5088810383528a5181528a516020918201918c019080838360005b838110156102b757818101518382015260200161029f565b50505050905090810190601f1680156102e45780820380516001836020036101000a031916815260200191505b5088810382528951815289516020918201918b019080838360005b838110156103175781810151838201526020016102ff565b50505050905090810190601f1680156103445780820380516001836020036101000a031916815260200191505b509f5050505050505050505050505050505060405180910390f35b610367610c86565b60408051918252519081900360200190f35b610381610c8c565b60408051602080825283518183015283519192839290830191858101910280838360005b838110156103bd5781810151838201526020016103a5565b505050509050019250505060405180910390f35b610367600480360360208110156103e757600080fd5b5035610ce5565b6107b0600480360360e081101561040457600080fd5b810190602081018135600160201b81111561041e57600080fd5b82018360208201111561043057600080fd5b803590602001918460018302840111600160201b8311171561045157600080fd5b91908080601f0160208091040260200160405190810160405280939291908181526020018383808284376000920191909152509295949360208101935035915050600160201b8111156104a357600080fd5b8201836020820111156104b557600080fd5b803590602001918460018302840111600160201b831117156104d657600080fd5b91908080601f0160208091040260200160405190810160405280939291908181526020018383808284376000920191909152509295949360208101935035915050600160201b81111561052857600080fd5b82018360208201111561053a57600080fd5b803590602001918460018302840111600160201b8311171561055b57600080fd5b91908080601f0160208091040260200160405190810160405280939291908181526020018383808284376000920191909152509295949360208101935035915050600160201b8111156105ad57600080fd5b8201836020820111156105bf57600080fd5b803590602001918460018302840111600160201b831117156105e057600080fd5b91908080601f0160208091040260200160405190810160405280939291908181526020018383808284376000920191909152509295949360208101935035915050600160201b81111561063257600080fd5b82018360208201111561064457600080fd5b803590602001918460018302840111600160201b8311171561066557600080fd5b91908080601f0160208091040260200160405190810160405280939291908181526020018383808284376000920191909152509295949360208101935035915050600160201b8111156106b757600080fd5b8201836020820111156106c957600080fd5b803590602001918460018302840111600160201b831117156106ea57600080fd5b91908080601f0160208091040260200160405190810160405280939291908181526020018383808284376000920191909152509295949360208101935035915050600160201b81111561073c57600080fd5b82018360208201111561074e57600080fd5b803590602001918460018302840111600160201b8311171561076f57600080fd5b91908080601f016020809104026020016040519081016040528093929190818152602001838380828437600092019190915250929550610d03945050505050565b005b600060608060608060608060606107c76111d3565b600260008b81526020019081526020016000206040518061014001604052908160008201548152602001600182018054600181600116156101000203166002900480601f0160208091040260200160405190810160405280929190818152602001828054600181600116156101000203166002900480156108895780601f1061085e57610100808354040283529160200191610889565b820191906000526020600020905b81548152906001019060200180831161086c57829003601f168201915b5050509183525050600282810180546040805160206001841615610100026000190190931694909404601f8101839004830285018301909152808452938101939083018282801561091b5780601f106108f05761010080835404028352916020019161091b565b820191906000526020600020905b8154815290600101906020018083116108fe57829003601f168201915b505050918352505060038201805460408051602060026001851615610100026000190190941693909304601f81018490048402820184019092528181529382019392918301828280156109af5780601f10610984576101008083540402835291602001916109af565b820191906000526020600020905b81548152906001019060200180831161099257829003601f168201915b505050918352505060048201805460408051602060026001851615610100026000190190941693909304601f8101849004840282018401909252818152938201939291830182828015610a435780601f10610a1857610100808354040283529160200191610a43565b820191906000526020600020905b815481529060010190602001808311610a2657829003601f168201915b505050918352505060058201805460408051602060026001851615610100026000190190941693909304601f8101849004840282018401909252818152938201939291830182828015610ad75780601f10610aac57610100808354040283529160200191610ad7565b820191906000526020600020905b815481529060010190602001808311610aba57829003601f168201915b505050918352505060068201805460408051602060026001851615610100026000190190941693909304601f8101849004840282018401909252818152938201939291830182828015610b6b5780601f10610b4057610100808354040283529160200191610b6b565b820191906000526020600020905b815481529060010190602001808311610b4e57829003601f168201915b505050918352505060078201805460408051602060026001851615610100026000190190941693909304601f8101849004840282018401909252818152938201939291830182828015610bff5780601f10610bd457610100808354040283529160200191610bff565b820191906000526020600020905b815481529060010190602001808311610be257829003601f168201915b5050509183525050600891909101546001600160a01b0381166020830152600160a01b900460ff161515604090910152610120810151909150610c4157600080fd5b8051602082015160408301516060840151608085015160a086015160c087015160e090970151959e50939c50919a509850965094509092509050919395975091939597565b60005481565b60606001805480602002602001604051908101604052809291908181526020018280548015610cda57602002820191906000526020600020905b815481526020019060010190808311610cc6575b505050505090505b90565b60018181548110610cf257fe5b600091825260209091200154905081565b33610d0d57600080fd5b600080546001019055610d1e6111d3565b5060408051610140810182526000805480835260208084018c81528486018c9052606085018b9052608085018a905260a0850189905260c0850188905260e08501879052336101008601526001610120860181905292845260028252949092208351815593518051939485949093610d9a938501920190611231565b5060408201518051610db6916002840191602090910190611231565b5060608201518051610dd2916003840191602090910190611231565b5060808201518051610dee916004840191602090910190611231565b5060a08201518051610e0a916005840191602090910190611231565b5060c08201518051610e26916006840191602090910190611231565b5060e08201518051610e42916007840191602090910190611231565b506101008201518160080160006101000a8154816001600160a01b0302191690836001600160a01b031602179055506101208201518160080160146101000a81548160ff021916908315150217905550905050600160005490806001815401808255809150509060018203906000526020600020016000909192909190915055507fd6897a4ba2e516cebac8be30b0eb63186f3eab27d05e7e2c7f95d8a86ffb52f788888888888888604051808060200180602001806020018060200180602001806020018060200188810388528f818151815260200191508051906020019080838360005b83811015610f40578181015183820152602001610f28565b50505050905090810190601f168015610f6d5780820380516001836020036101000a031916815260200191505b5088810387528e818151815260200191508051906020019080838360005b83811015610fa3578181015183820152602001610f8b565b50505050905090810190601f168015610fd05780820380516001836020036101000a031916815260200191505b5088810386528d5181528d516020918201918f019080838360005b83811015611003578181015183820152602001610feb565b50505050905090810190601f1680156110305780820380516001836020036101000a031916815260200191505b5088810385528c5181528c516020918201918e019080838360005b8381101561106357818101518382015260200161104b565b50505050905090810190601f1680156110905780820380516001836020036101000a031916815260200191505b5088810384528b5181528b516020918201918d019080838360005b838110156110c35781810151838201526020016110ab565b50505050905090810190601f1680156110f05780820380516001836020036101000a031916815260200191505b5088810383528a5181528a516020918201918c019080838360005b8381101561112357818101518382015260200161110b565b50505050905090810190601f1680156111505780820380516001836020036101000a031916815260200191505b5088810382528951815289516020918201918b019080838360005b8381101561118357818101518382015260200161116b565b50505050905090810190601f1680156111b05780820380516001836020036101000a031916815260200191505b509e50505050505050505050505050505060405180910390a15050505050505050565b604051806101400160405280600081526020016060815260200160608152602001606081526020016060815260200160608152602001606081526020016060815260200160006001600160a01b031681526020016000151581525090565b828054600181600116156101000203166002900490600052602060002090601f016020900481019282601f1061127257805160ff191683800117855561129f565b8280016001018555821561129f579182015b8281111561129f578251825591602001919060010190611284565b506112ab9291506112af565b5090565b610ce291905b808211156112ab57600081556001016112b556fea265627a7a72315820742ccadfe65e18f3a716cdadd13d085026aaf4abbfc077da150e401d9e38083c64736f6c63430005100032",
  "source": "pragma solidity >=0.5.1 <0.6.0;\r\n\r\ncontract EHR {\r\n    uint public Id;\r\n    uint[] public recordIds;\r\n    //mapping (uint => address );\r\n    mapping (uint => Record) stored_records;\r\n    \r\n\r\n    struct Record{\r\n        uint record_id;\r\n        string patient_name;\r\n        string patient_email;\r\n        string facilitator_name;\r\n        string facilitator_role;\r\n        string record_name;\r\n        string added_date;\r\n        string content_hash;\r\n        address uploader_address;\r\n        bool isCreated;\r\n    }\r\n    \r\n    constructor() public payable{\r\n        Id = 0;\r\n    }\r\n    event recordCreated(string _patient_name , string _patient_email, string _facilitator_name, string _facilitator_role, string _record_name, string _added_date, string _content_hash);\r\n\r\n    function add_record(string memory _patient_name, string memory _patient_email,\r\n    string memory _facilitator_name, string memory _facilitator_role,\r\n    string memory _record_name, string memory _added_date, string memory _content_hash) public \r\n    {   \r\n        require(msg.sender != address(0));\r\n        Id += 1;\r\n        Record memory record = Record(Id,_patient_name, _patient_email, _facilitator_name,_facilitator_role, _record_name, _added_date, _content_hash,msg.sender,true);\r\n        stored_records[Id] = record;\r\n        recordIds.push(Id);\r\n        emit recordCreated(_patient_name, _patient_email, _facilitator_name,_facilitator_role,_record_name,_added_date,_content_hash );\r\n    }\r\n    function getRecordIds() public view returns(uint[] memory) {\r\n        return recordIds;\r\n    }\r\n    \r\n    function get_record (uint _record_id)\r\n    public view returns (uint, string memory, string memory, string memory, string memory, string memory,\r\n    string memory,string memory)\r\n    {\r\n        Record memory record = stored_records[_record_id];\r\n        require(record.isCreated);\r\n        return (record.record_id, record.patient_name, record.patient_email,\r\n                record.facilitator_name, record.facilitator_role,\r\n                record.record_name, record.added_date,record.content_hash);\r\n        \r\n    }\r\n    \r\n    \r\n  \r\n\r\n}",
  "sourcePath": "D:/MedAccess/medacess/contracts/EHR.sol",
  "compiler": {
    "name": "solc",
    "version": "0.5.16+commit.9c3226ce.Emscripten.clang"
  },
  "schemaVersion": "3.2.4",
  "updatedAt": "2020-09-06T18:09:39.674Z",
  "devdoc": {
    "methods": {}
  },
  "userdoc": {
    "methods": {}
  }
}